{
  "_format": "hh-sol-artifact-1",
  "contractName": "Feedback",
  "sourceName": "contracts/Feedback.sol",
  "abi": [
    {
      "inputs": [
        {
          "internalType": "address",
          "name": "semaphoreAddress",
          "type": "address"
        },
        {
          "internalType": "uint256",
          "name": "_groupId",
          "type": "uint256"
        }
      ],
      "stateMutability": "nonpayable",
      "type": "constructor"
    },
    {
      "inputs": [],
      "name": "groupId",
      "outputs": [
        {
          "internalType": "uint256",
          "name": "",
          "type": "uint256"
        }
      ],
      "stateMutability": "view",
      "type": "function"
    },
    {
      "inputs": [
        {
          "internalType": "uint256",
          "name": "identityCommitment",
          "type": "uint256"
        }
      ],
      "name": "joinGroup",
      "outputs": [],
      "stateMutability": "nonpayable",
      "type": "function"
    },
    {
      "inputs": [],
      "name": "owner",
      "outputs": [
        {
          "internalType": "address",
          "name": "",
          "type": "address"
        }
      ],
      "stateMutability": "view",
      "type": "function"
    },
    {
      "inputs": [],
      "name": "semaphore",
      "outputs": [
        {
          "internalType": "contract ISemaphore",
          "name": "",
          "type": "address"
        }
      ],
      "stateMutability": "view",
      "type": "function"
    },
    {
      "inputs": [
        {
          "internalType": "uint256",
          "name": "vote",
          "type": "uint256"
        },
        {
          "internalType": "uint256",
          "name": "merkleTreeRoot",
          "type": "uint256"
        },
        {
          "internalType": "uint256",
          "name": "nullifierHash",
          "type": "uint256"
        },
        {
          "internalType": "uint256[8]",
          "name": "proof",
          "type": "uint256[8]"
        }
      ],
      "name": "verifyVote",
      "outputs": [],
      "stateMutability": "nonpayable",
      "type": "function"
    }
  ],
  "bytecode": "0x608060405234801561001057600080fd5b506040516108ba3803806108ba8339818101604052810190610032919061017d565b816000806101000a81548173ffffffffffffffffffffffffffffffffffffffff021916908373ffffffffffffffffffffffffffffffffffffffff1602179055508060028190555033600160006101000a81548173ffffffffffffffffffffffffffffffffffffffff021916908373ffffffffffffffffffffffffffffffffffffffff16021790555060008054906101000a900473ffffffffffffffffffffffffffffffffffffffff1673ffffffffffffffffffffffffffffffffffffffff16639c1121416002546014306040518463ffffffff1660e01b815260040161011a939291906101e6565b600060405180830381600087803b15801561013457600080fd5b505af1158015610148573d6000803e3d6000fd5b505050505050610299565b6000815190506101628161026b565b92915050565b60008151905061017781610282565b92915050565b6000806040838503121561019057600080fd5b600061019e85828601610153565b92505060206101af85828601610168565b9150509250929050565b6101c28161021d565b82525050565b6101d181610259565b82525050565b6101e08161024f565b82525050565b60006060820190506101fb60008301866101d7565b61020860208301856101c8565b61021560408301846101b9565b949350505050565b60006102288261022f565b9050919050565b600073ffffffffffffffffffffffffffffffffffffffff82169050919050565b6000819050919050565b60006102648261024f565b9050919050565b6102748161021d565b811461027f57600080fd5b50565b61028b8161024f565b811461029657600080fd5b50565b610612806102a86000396000f3fe608060405234801561001057600080fd5b50600436106100575760003560e01c80631e26a6271461005c5780637b5d2534146100785780638da5cb5b14610096578063a0f44c92146100b4578063eed02e4b146100d2575b600080fd5b6100766004803603810190610071919061035b565b6100ee565b005b61008061018d565b60405161008d919061043b565b60405180910390f35b61009e6101b1565b6040516100ab9190610420565b60405180910390f35b6100bc6101d7565b6040516100c99190610476565b60405180910390f35b6100ec60048036038101906100e79190610332565b6101dd565b005b60008054906101000a900473ffffffffffffffffffffffffffffffffffffffff1673ffffffffffffffffffffffffffffffffffffffff16633bc778e3600254858786600254876040518763ffffffff1660e01b8152600401610155969594939291906104ba565b600060405180830381600087803b15801561016f57600080fd5b505af1158015610183573d6000803e3d6000fd5b5050505050505050565b60008054906101000a900473ffffffffffffffffffffffffffffffffffffffff1681565b600160009054906101000a900473ffffffffffffffffffffffffffffffffffffffff1681565b60025481565b600160009054906101000a900473ffffffffffffffffffffffffffffffffffffffff1673ffffffffffffffffffffffffffffffffffffffff163373ffffffffffffffffffffffffffffffffffffffff161461026d576040517f08c379a000000000000000000000000000000000000000000000000000000000815260040161026490610456565b60405180910390fd5b60008054906101000a900473ffffffffffffffffffffffffffffffffffffffff1673ffffffffffffffffffffffffffffffffffffffff16631783efc3600254836040518363ffffffff1660e01b81526004016102ca929190610491565b600060405180830381600087803b1580156102e457600080fd5b505af11580156102f8573d6000803e3d6000fd5b5050505050565b60008190508260206008028201111561031757600080fd5b92915050565b60008135905061032c816105c5565b92915050565b60006020828403121561034457600080fd5b60006103528482850161031d565b91505092915050565b600080600080610160858703121561037257600080fd5b60006103808782880161031d565b94505060206103918782880161031d565b93505060406103a28782880161031d565b92505060606103b3878288016102ff565b91505092959194509250565b6103c88161052d565b82525050565b6103db610100838361058d565b5050565b6103e881610569565b82525050565b60006103fb600d8361051c565b91506104068261059c565b602082019050919050565b61041a8161055f565b82525050565b600060208201905061043560008301846103bf565b92915050565b600060208201905061045060008301846103df565b92915050565b6000602082019050818103600083015261046f816103ee565b9050919050565b600060208201905061048b6000830184610411565b92915050565b60006040820190506104a66000830185610411565b6104b36020830184610411565b9392505050565b60006101a0820190506104d06000830189610411565b6104dd6020830188610411565b6104ea6040830187610411565b6104f76060830186610411565b6105046080830185610411565b61051160a08301846103ce565b979650505050505050565b600082825260208201905092915050565b60006105388261053f565b9050919050565b600073ffffffffffffffffffffffffffffffffffffffff82169050919050565b6000819050919050565b60006105748261057b565b9050919050565b60006105868261053f565b9050919050565b82818337600083830152505050565b7f4e6f7420746865206f776e657200000000000000000000000000000000000000600082015250565b6105ce8161055f565b81146105d957600080fd5b5056fea26469706673582212201aed43a1d15dfd283839527a63b6142897c359b33188be57a3629d26328afc0764736f6c63430008040033",
  "linkReferences": {},
  "deployedLinkReferences": {}
}